{
	"_format": "hh-sol-artifact-1",
	"contractName": "RoboPunksNFT",
	"sourceName": "contracts/RoboPunksNFT.sol",
	"abi": [
		{
			"inputs": [],
			"stateMutability": "payable",
			"type": "constructor"
		},
		{
			"anonymous": false,
			"inputs": [
				{
					"indexed": true,
					"internalType": "address",
					"name": "owner",
					"type": "address"
				},
				{
					"indexed": true,
					"internalType": "address",
					"name": "approved",
					"type": "address"
				},
				{
					"indexed": true,
					"internalType": "uint256",
					"name": "tokenId",
					"type": "uint256"
				}
			],
			"name": "Approval",
			"type": "event"
		},
		{
			"anonymous": false,
			"inputs": [
				{
					"indexed": true,
					"internalType": "address",
					"name": "owner",
					"type": "address"
				},
				{
					"indexed": true,
					"internalType": "address",
					"name": "operator",
					"type": "address"
				},
				{
					"indexed": false,
					"internalType": "bool",
					"name": "approved",
					"type": "bool"
				}
			],
			"name": "ApprovalForAll",
			"type": "event"
		},
		{
			"anonymous": false,
			"inputs": [
				{
					"indexed": true,
					"internalType": "address",
					"name": "previousOwner",
					"type": "address"
				},
				{
					"indexed": true,
					"internalType": "address",
					"name": "newOwner",
					"type": "address"
				}
			],
			"name": "OwnershipTransferred",
			"type": "event"
		},
		{
			"anonymous": false,
			"inputs": [
				{
					"indexed": true,
					"internalType": "address",
					"name": "from",
					"type": "address"
				},
				{
					"indexed": true,
					"internalType": "address",
					"name": "to",
					"type": "address"
				},
				{
					"indexed": true,
					"internalType": "uint256",
					"name": "tokenId",
					"type": "uint256"
				}
			],
			"name": "Transfer",
			"type": "event"
		},
		{
			"inputs": [
				{
					"internalType": "address",
					"name": "to",
					"type": "address"
				},
				{
					"internalType": "uint256",
					"name": "tokenId",
					"type": "uint256"
				}
			],
			"name": "approve",
			"outputs": [],
			"stateMutability": "nonpayable",
			"type": "function"
		},
		{
			"inputs": [
				{
					"internalType": "address",
					"name": "owner",
					"type": "address"
				}
			],
			"name": "balanceOf",
			"outputs": [
				{
					"internalType": "uint256",
					"name": "",
					"type": "uint256"
				}
			],
			"stateMutability": "view",
			"type": "function"
		},
		{
			"inputs": [
				{
					"internalType": "uint256",
					"name": "tokenId",
					"type": "uint256"
				}
			],
			"name": "getApproved",
			"outputs": [
				{
					"internalType": "address",
					"name": "",
					"type": "address"
				}
			],
			"stateMutability": "view",
			"type": "function"
		},
		{
			"inputs": [
				{
					"internalType": "address",
					"name": "owner",
					"type": "address"
				},
				{
					"internalType": "address",
					"name": "operator",
					"type": "address"
				}
			],
			"name": "isApprovedForAll",
			"outputs": [
				{
					"internalType": "bool",
					"name": "",
					"type": "bool"
				}
			],
			"stateMutability": "view",
			"type": "function"
		},
		{
			"inputs": [],
			"name": "isPublicMintEnabled",
			"outputs": [
				{
					"internalType": "bool",
					"name": "",
					"type": "bool"
				}
			],
			"stateMutability": "view",
			"type": "function"
		},
		{
			"inputs": [],
			"name": "isWhitelistMintEnabled",
			"outputs": [
				{
					"internalType": "bool",
					"name": "",
					"type": "bool"
				}
			],
			"stateMutability": "view",
			"type": "function"
		},
		{
			"inputs": [],
			"name": "maxSupply",
			"outputs": [
				{
					"internalType": "uint256",
					"name": "",
					"type": "uint256"
				}
			],
			"stateMutability": "view",
			"type": "function"
		},
		{
			"inputs": [
				{
					"internalType": "uint256",
					"name": "quantity_",
					"type": "uint256"
				}
			],
			"name": "mint",
			"outputs": [],
			"stateMutability": "payable",
			"type": "function"
		},
		{
			"inputs": [],
			"name": "mintPrice",
			"outputs": [
				{
					"internalType": "uint256",
					"name": "",
					"type": "uint256"
				}
			],
			"stateMutability": "view",
			"type": "function"
		},
		{
			"inputs": [],
			"name": "name",
			"outputs": [
				{
					"internalType": "string",
					"name": "",
					"type": "string"
				}
			],
			"stateMutability": "view",
			"type": "function"
		},
		{
			"inputs": [],
			"name": "owner",
			"outputs": [
				{
					"internalType": "address",
					"name": "",
					"type": "address"
				}
			],
			"stateMutability": "view",
			"type": "function"
		},
		{
			"inputs": [
				{
					"internalType": "uint256",
					"name": "tokenId",
					"type": "uint256"
				}
			],
			"name": "ownerOf",
			"outputs": [
				{
					"internalType": "address",
					"name": "",
					"type": "address"
				}
			],
			"stateMutability": "view",
			"type": "function"
		},
		{
			"inputs": [],
			"name": "renounceOwnership",
			"outputs": [],
			"stateMutability": "nonpayable",
			"type": "function"
		},
		{
			"inputs": [
				{
					"internalType": "address",
					"name": "from",
					"type": "address"
				},
				{
					"internalType": "address",
					"name": "to",
					"type": "address"
				},
				{
					"internalType": "uint256",
					"name": "tokenId",
					"type": "uint256"
				}
			],
			"name": "safeTransferFrom",
			"outputs": [],
			"stateMutability": "nonpayable",
			"type": "function"
		},
		{
			"inputs": [
				{
					"internalType": "address",
					"name": "from",
					"type": "address"
				},
				{
					"internalType": "address",
					"name": "to",
					"type": "address"
				},
				{
					"internalType": "uint256",
					"name": "tokenId",
					"type": "uint256"
				},
				{
					"internalType": "bytes",
					"name": "data",
					"type": "bytes"
				}
			],
			"name": "safeTransferFrom",
			"outputs": [],
			"stateMutability": "nonpayable",
			"type": "function"
		},
		{
			"inputs": [
				{
					"internalType": "address",
					"name": "operator",
					"type": "address"
				},
				{
					"internalType": "bool",
					"name": "approved",
					"type": "bool"
				}
			],
			"name": "setApprovalForAll",
			"outputs": [],
			"stateMutability": "nonpayable",
			"type": "function"
		},
		{
			"inputs": [
				{
					"internalType": "string",
					"name": "baseTokenUri_",
					"type": "string"
				}
			],
			"name": "setBaseTokenUri",
			"outputs": [],
			"stateMutability": "nonpayable",
			"type": "function"
		},
		{
			"inputs": [
				{
					"internalType": "bool",
					"name": "isPublicMintEnabled_",
					"type": "bool"
				}
			],
			"name": "setIsPublicMintEnabled",
			"outputs": [],
			"stateMutability": "nonpayable",
			"type": "function"
		},
		{
			"inputs": [
				{
					"internalType": "bool",
					"name": "isWhitelistMintEnabled_",
					"type": "bool"
				}
			],
			"name": "setIsWhitelistMintEnabled",
			"outputs": [],
			"stateMutability": "nonpayable",
			"type": "function"
		},
		{
			"inputs": [
				{
					"internalType": "bytes32",
					"name": "whitelistMerkleRoot_",
					"type": "bytes32"
				}
			],
			"name": "setwhitelistMerkleRoot",
			"outputs": [],
			"stateMutability": "nonpayable",
			"type": "function"
		},
		{
			"inputs": [
				{
					"internalType": "bytes4",
					"name": "interfaceId",
					"type": "bytes4"
				}
			],
			"name": "supportsInterface",
			"outputs": [
				{
					"internalType": "bool",
					"name": "",
					"type": "bool"
				}
			],
			"stateMutability": "view",
			"type": "function"
		},
		{
			"inputs": [],
			"name": "symbol",
			"outputs": [
				{
					"internalType": "string",
					"name": "",
					"type": "string"
				}
			],
			"stateMutability": "view",
			"type": "function"
		},
		{
			"inputs": [
				{
					"internalType": "uint256",
					"name": "tokenId_",
					"type": "uint256"
				}
			],
			"name": "tokenURI",
			"outputs": [
				{
					"internalType": "string",
					"name": "",
					"type": "string"
				}
			],
			"stateMutability": "view",
			"type": "function"
		},
		{
			"inputs": [],
			"name": "totalSupply",
			"outputs": [
				{
					"internalType": "uint256",
					"name": "",
					"type": "uint256"
				}
			],
			"stateMutability": "view",
			"type": "function"
		},
		{
			"inputs": [
				{
					"internalType": "address",
					"name": "from",
					"type": "address"
				},
				{
					"internalType": "address",
					"name": "to",
					"type": "address"
				},
				{
					"internalType": "uint256",
					"name": "tokenId",
					"type": "uint256"
				}
			],
			"name": "transferFrom",
			"outputs": [],
			"stateMutability": "nonpayable",
			"type": "function"
		},
		{
			"inputs": [
				{
					"internalType": "address",
					"name": "newOwner",
					"type": "address"
				}
			],
			"name": "transferOwnership",
			"outputs": [],
			"stateMutability": "nonpayable",
			"type": "function"
		},
		{
			"inputs": [
				{
					"internalType": "address",
					"name": "",
					"type": "address"
				}
			],
			"name": "walletMints",
			"outputs": [
				{
					"internalType": "uint256",
					"name": "",
					"type": "uint256"
				}
			],
			"stateMutability": "view",
			"type": "function"
		},
		{
			"inputs": [
				{
					"internalType": "address",
					"name": "",
					"type": "address"
				}
			],
			"name": "whitelistClaimed",
			"outputs": [
				{
					"internalType": "bool",
					"name": "",
					"type": "bool"
				}
			],
			"stateMutability": "view",
			"type": "function"
		},
		{
			"inputs": [],
			"name": "whitelistMerkleRoot",
			"outputs": [
				{
					"internalType": "bytes32",
					"name": "",
					"type": "bytes32"
				}
			],
			"stateMutability": "view",
			"type": "function"
		},
		{
			"inputs": [],
			"name": "whitelistPrice",
			"outputs": [
				{
					"internalType": "uint256",
					"name": "",
					"type": "uint256"
				}
			],
			"stateMutability": "view",
			"type": "function"
		},
		{
			"inputs": [
				{
					"internalType": "uint256",
					"name": "quantity_",
					"type": "uint256"
				},
				{
					"internalType": "bytes32[]",
					"name": "_merkleProof",
					"type": "bytes32[]"
				}
			],
			"name": "whitelistmint",
			"outputs": [],
			"stateMutability": "payable",
			"type": "function"
		},
		{
			"inputs": [],
			"name": "withdraw",
			"outputs": [],
			"stateMutability": "nonpayable",
			"type": "function"
		},
		{
			"inputs": [],
			"name": "withdrawWallet",
			"outputs": [
				{
					"internalType": "address payable",
					"name": "",
					"type": "address"
				}
			],
			"stateMutability": "view",
			"type": "function"
		}
	],
	"bytecode": "0x60806040526040518060400160405280600981526020017f526f626f50756e6b7300000000000000000000000000000000000000000000008152506040518060400160405280600281526020017f5250000000000000000000000000000000000000000000000000000000000000815250816000908162000081919062000480565b50806001908162000093919062000480565b505050620000b6620000aa6200013860201b60201c565b6200014060201b60201c565b6601c6bf52634000600781905550655af3107a400060088190555060006009819055506064600a819055506005600b819055506002600c8190555033600f60006101000a81548173ffffffffffffffffffffffffffffffffffffffff021916908373ffffffffffffffffffffffffffffffffffffffff16021790555062000567565b600033905090565b6000600660009054906101000a900473ffffffffffffffffffffffffffffffffffffffff16905081600660006101000a81548173ffffffffffffffffffffffffffffffffffffffff021916908373ffffffffffffffffffffffffffffffffffffffff1602179055508173ffffffffffffffffffffffffffffffffffffffff168173ffffffffffffffffffffffffffffffffffffffff167f8be0079c531659141344cd1fd0a4f28419497f9722a3daafe3b4186f6b6457e060405160405180910390a35050565b600081519050919050565b7f4e487b7100000000000000000000000000000000000000000000000000000000600052604160045260246000fd5b7f4e487b7100000000000000000000000000000000000000000000000000000000600052602260045260246000fd5b600060028204905060018216806200028857607f821691505b6020821081036200029e576200029d62000240565b5b50919050565b60008190508160005260206000209050919050565b60006020601f8301049050919050565b600082821b905092915050565b600060088302620003087fffffffffffffffffffffffffffffffffffffffffffffffffffffffffffffffff82620002c9565b620003148683620002c9565b95508019841693508086168417925050509392505050565b6000819050919050565b6000819050919050565b6000620003616200035b62000355846200032c565b62000336565b6200032c565b9050919050565b6000819050919050565b6200037d8362000340565b620003956200038c8262000368565b848454620002d6565b825550505050565b600090565b620003ac6200039d565b620003b981848462000372565b505050565b5b81811015620003e157620003d5600082620003a2565b600181019050620003bf565b5050565b601f8211156200043057620003fa81620002a4565b6200040584620002b9565b8101602085101562000415578190505b6200042d6200042485620002b9565b830182620003be565b50505b505050565b600082821c905092915050565b6000620004556000198460080262000435565b1980831691505092915050565b600062000470838362000442565b9150826002028217905092915050565b6200048b8262000206565b67ffffffffffffffff811115620004a757620004a662000211565b5b620004b382546200026f565b620004c0828285620003e5565b600060209050601f831160018114620004f85760008415620004e3578287015190505b620004ef858262000462565b8655506200055f565b601f1984166200050886620002a4565b60005b8281101562000532578489015182556001820191506020850194506020810190506200050b565b868310156200055257848901516200054e601f89168262000442565b8355505b6001600288020188555050505b505050505050565b613fce80620005776000396000f3fe6080604052600436106101ee5760003560e01c80638da5cb5b1161010d578063cbae5987116100a0578063e985e9c51161006f578063e985e9c5146106ca578063f0293fd314610707578063f2fde38b14610744578063f7019ffd1461076d578063fc1a1c3614610789576101ee565b8063cbae598714610610578063d5abeb0114610639578063d75286e514610664578063db4bec441461068d576101ee565b8063a22cb465116100dc578063a22cb46514610556578063aa98e0c61461057f578063b88d4fde146105aa578063c87b56dd146105d3576101ee565b80638da5cb5b146104bb57806395652cfa146104e657806395d89b411461050f578063a0712d681461053a576101ee565b80633ccfd60b116101855780636817c76c116101545780636817c76c1461041157806370a082311461043c578063715018a61461047957806385d178f414610490576101ee565b80633ccfd60b1461036957806342842e0e1461038057806351aaceab146103a95780636352211e146103d4576101ee565b8063095ea7b3116101c1578063095ea7b3146102c357806318160ddd146102ec5780632373ac221461031757806323b872dd14610340576101ee565b80630116bc2d146101f357806301ffc9a71461021e57806306fdde031461025b578063081812fc14610286575b600080fd5b3480156101ff57600080fd5b506102086107b4565b6040516102159190612630565b60405180910390f35b34801561022a57600080fd5b50610245600480360381019061024091906126b7565b6107c7565b6040516102529190612630565b60405180910390f35b34801561026757600080fd5b506102706108a9565b60405161027d9190612774565b60405180910390f35b34801561029257600080fd5b506102ad60048036038101906102a891906127cc565b61093b565b6040516102ba919061283a565b60405180910390f35b3480156102cf57600080fd5b506102ea60048036038101906102e59190612881565b610981565b005b3480156102f857600080fd5b50610301610a98565b60405161030e91906128d0565b60405180910390f35b34801561032357600080fd5b5061033e60048036038101906103399190612917565b610a9e565b005b34801561034c57600080fd5b5061036760048036038101906103629190612944565b610ac3565b005b34801561037557600080fd5b5061037e610b23565b005b34801561038c57600080fd5b506103a760048036038101906103a29190612944565b610bfc565b005b3480156103b557600080fd5b506103be610c1c565b6040516103cb9190612630565b60405180910390f35b3480156103e057600080fd5b506103fb60048036038101906103f691906127cc565b610c2f565b604051610408919061283a565b60405180910390f35b34801561041d57600080fd5b50610426610cb5565b60405161043391906128d0565b60405180910390f35b34801561044857600080fd5b50610463600480360381019061045e9190612997565b610cbb565b60405161047091906128d0565b60405180910390f35b34801561048557600080fd5b5061048e610d72565b005b34801561049c57600080fd5b506104a5610d86565b6040516104b291906129e5565b60405180910390f35b3480156104c757600080fd5b506104d0610dac565b6040516104dd919061283a565b60405180910390f35b3480156104f257600080fd5b5061050d60048036038101906105089190612a65565b610dd6565b005b34801561051b57600080fd5b50610524610df4565b6040516105319190612774565b60405180910390f35b610554600480360381019061054f91906127cc565b610e86565b005b34801561056257600080fd5b5061057d60048036038101906105789190612ab2565b61105d565b005b34801561058b57600080fd5b50610594611073565b6040516105a19190612b0b565b60405180910390f35b3480156105b657600080fd5b506105d160048036038101906105cc9190612c56565b611079565b005b3480156105df57600080fd5b506105fa60048036038101906105f591906127cc565b6110db565b6040516106079190612774565b60405180910390f35b34801561061c57600080fd5b5061063760048036038101906106329190612917565b611157565b005b34801561064557600080fd5b5061064e61117c565b60405161065b91906128d0565b60405180910390f35b34801561067057600080fd5b5061068b60048036038101906106869190612d05565b611182565b005b34801561069957600080fd5b506106b460048036038101906106af9190612997565b611194565b6040516106c19190612630565b60405180910390f35b3480156106d657600080fd5b506106f160048036038101906106ec9190612d32565b6111b4565b6040516106fe9190612630565b60405180910390f35b34801561071357600080fd5b5061072e60048036038101906107299190612997565b611248565b60405161073b91906128d0565b60405180910390f35b34801561075057600080fd5b5061076b60048036038101906107669190612997565b611260565b005b61078760048036038101906107829190612dc8565b6112e3565b005b34801561079557600080fd5b5061079e61166f565b6040516107ab91906128d0565b60405180910390f35b600d60009054906101000a900460ff1681565b60007f80ac58cd000000000000000000000000000000000000000000000000000000007bffffffffffffffffffffffffffffffffffffffffffffffffffffffff1916827bffffffffffffffffffffffffffffffffffffffffffffffffffffffff1916148061089257507f5b5e139f000000000000000000000000000000000000000000000000000000007bffffffffffffffffffffffffffffffffffffffffffffffffffffffff1916827bffffffffffffffffffffffffffffffffffffffffffffffffffffffff1916145b806108a257506108a182611675565b5b9050919050565b6060600080546108b890612e57565b80601f01602080910402602001604051908101604052809291908181526020018280546108e490612e57565b80156109315780601f1061090657610100808354040283529160200191610931565b820191906000526020600020905b81548152906001019060200180831161091457829003601f168201915b5050505050905090565b6000610946826116df565b6004600083815260200190815260200160002060009054906101000a900473ffffffffffffffffffffffffffffffffffffffff169050919050565b600061098c82610c2f565b90508073ffffffffffffffffffffffffffffffffffffffff168373ffffffffffffffffffffffffffffffffffffffff16036109fc576040517f08c379a00000000000000000000000000000000000000000000000000000000081526004016109f390612efa565b60405180910390fd5b8073ffffffffffffffffffffffffffffffffffffffff16610a1b61172a565b73ffffffffffffffffffffffffffffffffffffffff161480610a4a5750610a4981610a4461172a565b6111b4565b5b610a89576040517f08c379a0000000000000000000000000000000000000000000000000000000008152600401610a8090612f8c565b60405180910390fd5b610a938383611732565b505050565b60095481565b610aa66117eb565b80600d60006101000a81548160ff02191690831515021790555050565b610ad4610ace61172a565b82611869565b610b13576040517f08c379a0000000000000000000000000000000000000000000000000000000008152600401610b0a9061301e565b60405180910390fd5b610b1e8383836118fe565b505050565b610b2b6117eb565b6000600f60009054906101000a900473ffffffffffffffffffffffffffffffffffffffff1673ffffffffffffffffffffffffffffffffffffffff1647604051610b739061306f565b60006040518083038185875af1925050503d8060008114610bb0576040519150601f19603f3d011682016040523d82523d6000602084013e610bb5565b606091505b5050905080610bf9576040517f08c379a0000000000000000000000000000000000000000000000000000000008152600401610bf0906130d0565b60405180910390fd5b50565b610c1783838360405180602001604052806000815250611079565b505050565b600d60019054906101000a900460ff1681565b600080610c3b83611bf3565b9050600073ffffffffffffffffffffffffffffffffffffffff168173ffffffffffffffffffffffffffffffffffffffff1603610cac576040517f08c379a0000000000000000000000000000000000000000000000000000000008152600401610ca39061313c565b60405180910390fd5b80915050919050565b60075481565b60008073ffffffffffffffffffffffffffffffffffffffff168273ffffffffffffffffffffffffffffffffffffffff1603610d2b576040517f08c379a0000000000000000000000000000000000000000000000000000000008152600401610d22906131ce565b60405180910390fd5b600360008373ffffffffffffffffffffffffffffffffffffffff1673ffffffffffffffffffffffffffffffffffffffff168152602001908152602001600020549050919050565b610d7a6117eb565b610d846000611c30565b565b600f60009054906101000a900473ffffffffffffffffffffffffffffffffffffffff1681565b6000600660009054906101000a900473ffffffffffffffffffffffffffffffffffffffff16905090565b610dde6117eb565b8181600e9182610def9291906133a5565b505050565b606060018054610e0390612e57565b80601f0160208091040260200160405190810160405280929190818152602001828054610e2f90612e57565b8015610e7c5780601f10610e5157610100808354040283529160200191610e7c565b820191906000526020600020905b815481529060010190602001808311610e5f57829003601f168201915b5050505050905090565b600d60009054906101000a900460ff16610ed5576040517f08c379a0000000000000000000000000000000000000000000000000000000008152600401610ecc906134c1565b60405180910390fd5b60075481610ee39190613510565b3414610f24576040517f08c379a0000000000000000000000000000000000000000000000000000000008152600401610f1b9061359e565b60405180910390fd5b600a5481600954610f3591906135be565b1115610f76576040517f08c379a0000000000000000000000000000000000000000000000000000000008152600401610f6d9061363e565b60405180910390fd5b600b5481601160003373ffffffffffffffffffffffffffffffffffffffff1673ffffffffffffffffffffffffffffffffffffffff16815260200190815260200160002054610fc491906135be565b1115611005576040517f08c379a0000000000000000000000000000000000000000000000000000000008152600401610ffc906136aa565b60405180910390fd5b60005b81811015611059576000600160095461102191906135be565b905060096000815480929190611036906136ca565b91905055506110453382611cf6565b508080611051906136ca565b915050611008565b5050565b61106f61106861172a565b8383611d14565b5050565b60105481565b61108a61108461172a565b83611869565b6110c9576040517f08c379a00000000000000000000000000000000000000000000000000000000081526004016110c09061301e565b60405180910390fd5b6110d584848484611e80565b50505050565b60606110e682611edc565b611125576040517f08c379a000000000000000000000000000000000000000000000000000000000815260040161111c9061375e565b60405180910390fd5b600e61113083611f1d565b604051602001611141929190613889565b6040516020818303038152906040529050919050565b61115f6117eb565b80600d60016101000a81548160ff02191690831515021790555050565b600a5481565b61118a6117eb565b8060108190555050565b60126020528060005260406000206000915054906101000a900460ff1681565b6000600560008473ffffffffffffffffffffffffffffffffffffffff1673ffffffffffffffffffffffffffffffffffffffff16815260200190815260200160002060008373ffffffffffffffffffffffffffffffffffffffff1673ffffffffffffffffffffffffffffffffffffffff16815260200190815260200160002060009054906101000a900460ff16905092915050565b60116020528060005260406000206000915090505481565b6112686117eb565b600073ffffffffffffffffffffffffffffffffffffffff168173ffffffffffffffffffffffffffffffffffffffff16036112d7576040517f08c379a00000000000000000000000000000000000000000000000000000000081526004016112ce9061392a565b60405180910390fd5b6112e081611c30565b50565b600d60019054906101000a900460ff16611332576040517f08c379a000000000000000000000000000000000000000000000000000000000815260040161132990613996565b60405180910390fd5b6012600061133e61172a565b73ffffffffffffffffffffffffffffffffffffffff1673ffffffffffffffffffffffffffffffffffffffff16815260200190815260200160002060009054906101000a900460ff16156113c6576040517f08c379a00000000000000000000000000000000000000000000000000000000081526004016113bd90613a02565b60405180910390fd5b600854836113d49190613510565b3414611415576040517f08c379a000000000000000000000000000000000000000000000000000000000815260040161140c9061359e565b60405180910390fd5b600a548360095461142691906135be565b1115611467576040517f08c379a000000000000000000000000000000000000000000000000000000000815260040161145e9061363e565b60405180910390fd5b600c5483601160003373ffffffffffffffffffffffffffffffffffffffff1673ffffffffffffffffffffffffffffffffffffffff168152602001908152602001600020546114b591906135be565b11156114f6576040517f08c379a00000000000000000000000000000000000000000000000000000000081526004016114ed906136aa565b60405180910390fd5b600061150061172a565b6040516020016115109190613a6a565b604051602081830303815290604052805190602001209050611576838380806020026020016040519081016040528093929190818152602001838360200280828437600081840152601f19601f8201169050808301925050505050505060105483611feb565b6115b5576040517f08c379a00000000000000000000000000000000000000000000000000000000081526004016115ac90613ad1565b60405180910390fd5b6001601260006115c361172a565b73ffffffffffffffffffffffffffffffffffffffff1673ffffffffffffffffffffffffffffffffffffffff16815260200190815260200160002060006101000a81548160ff02191690831515021790555060005b84811015611668576000600160095461163091906135be565b905060096000815480929190611645906136ca565b91905055506116543382611cf6565b508080611660906136ca565b915050611617565b5050505050565b60085481565b60007f01ffc9a7000000000000000000000000000000000000000000000000000000007bffffffffffffffffffffffffffffffffffffffffffffffffffffffff1916827bffffffffffffffffffffffffffffffffffffffffffffffffffffffff1916149050919050565b6116e881611edc565b611727576040517f08c379a000000000000000000000000000000000000000000000000000000000815260040161171e9061313c565b60405180910390fd5b50565b600033905090565b816004600083815260200190815260200160002060006101000a81548173ffffffffffffffffffffffffffffffffffffffff021916908373ffffffffffffffffffffffffffffffffffffffff160217905550808273ffffffffffffffffffffffffffffffffffffffff166117a583610c2f565b73ffffffffffffffffffffffffffffffffffffffff167f8c5be1e5ebec7d5bd14f71427d1e84f3dd0314c0f7b2291e5b200ac8c7c3b92560405160405180910390a45050565b6117f361172a565b73ffffffffffffffffffffffffffffffffffffffff16611811610dac565b73ffffffffffffffffffffffffffffffffffffffff1614611867576040517f08c379a000000000000000000000000000000000000000000000000000000000815260040161185e90613b3d565b60405180910390fd5b565b60008061187583610c2f565b90508073ffffffffffffffffffffffffffffffffffffffff168473ffffffffffffffffffffffffffffffffffffffff1614806118b757506118b681856111b4565b5b806118f557508373ffffffffffffffffffffffffffffffffffffffff166118dd8461093b565b73ffffffffffffffffffffffffffffffffffffffff16145b91505092915050565b8273ffffffffffffffffffffffffffffffffffffffff1661191e82610c2f565b73ffffffffffffffffffffffffffffffffffffffff1614611974576040517f08c379a000000000000000000000000000000000000000000000000000000000815260040161196b90613bcf565b60405180910390fd5b600073ffffffffffffffffffffffffffffffffffffffff168273ffffffffffffffffffffffffffffffffffffffff16036119e3576040517f08c379a00000000000000000000000000000000000000000000000000000000081526004016119da90613c61565b60405180910390fd5b6119ee838383612002565b8273ffffffffffffffffffffffffffffffffffffffff16611a0e82610c2f565b73ffffffffffffffffffffffffffffffffffffffff1614611a64576040517f08c379a0000000000000000000000000000000000000000000000000000000008152600401611a5b90613bcf565b60405180910390fd5b6004600082815260200190815260200160002060006101000a81549073ffffffffffffffffffffffffffffffffffffffff02191690556001600360008573ffffffffffffffffffffffffffffffffffffffff1673ffffffffffffffffffffffffffffffffffffffff168152602001908152602001600020600082825403925050819055506001600360008473ffffffffffffffffffffffffffffffffffffffff1673ffffffffffffffffffffffffffffffffffffffff16815260200190815260200160002060008282540192505081905550816002600083815260200190815260200160002060006101000a81548173ffffffffffffffffffffffffffffffffffffffff021916908373ffffffffffffffffffffffffffffffffffffffff160217905550808273ffffffffffffffffffffffffffffffffffffffff168473ffffffffffffffffffffffffffffffffffffffff167fddf252ad1be2c89b69c2b068fc378daa952ba7f163c4a11628f55a4df523b3ef60405160405180910390a4611bee838383612007565b505050565b60006002600083815260200190815260200160002060009054906101000a900473ffffffffffffffffffffffffffffffffffffffff169050919050565b6000600660009054906101000a900473ffffffffffffffffffffffffffffffffffffffff16905081600660006101000a81548173ffffffffffffffffffffffffffffffffffffffff021916908373ffffffffffffffffffffffffffffffffffffffff1602179055508173ffffffffffffffffffffffffffffffffffffffff168173ffffffffffffffffffffffffffffffffffffffff167f8be0079c531659141344cd1fd0a4f28419497f9722a3daafe3b4186f6b6457e060405160405180910390a35050565b611d1082826040518060200160405280600081525061200c565b5050565b8173ffffffffffffffffffffffffffffffffffffffff168373ffffffffffffffffffffffffffffffffffffffff1603611d82576040517f08c379a0000000000000000000000000000000000000000000000000000000008152600401611d7990613ccd565b60405180910390fd5b80600560008573ffffffffffffffffffffffffffffffffffffffff1673ffffffffffffffffffffffffffffffffffffffff16815260200190815260200160002060008473ffffffffffffffffffffffffffffffffffffffff1673ffffffffffffffffffffffffffffffffffffffff16815260200190815260200160002060006101000a81548160ff0219169083151502179055508173ffffffffffffffffffffffffffffffffffffffff168373ffffffffffffffffffffffffffffffffffffffff167f17307eab39ab6107e8899845ad3d59bd9653f200f220920489ca2b5937696c3183604051611e739190612630565b60405180910390a3505050565b611e8b8484846118fe565b611e9784848484612067565b611ed6576040517f08c379a0000000000000000000000000000000000000000000000000000000008152600401611ecd90613d5f565b60405180910390fd5b50505050565b60008073ffffffffffffffffffffffffffffffffffffffff16611efe83611bf3565b73ffffffffffffffffffffffffffffffffffffffff1614159050919050565b606060006001611f2c846121ee565b01905060008167ffffffffffffffff811115611f4b57611f4a612b2b565b5b6040519080825280601f01601f191660200182016040528015611f7d5781602001600182028036833780820191505090505b509050600082602001820190505b600115611fe0578080600190039150507f3031323334353637383961626364656600000000000000000000000000000000600a86061a8153600a8581611fd457611fd3613d7f565b5b04945060008503611f8b575b819350505050919050565b600082611ff88584612341565b1490509392505050565b505050565b505050565b6120168383612397565b6120236000848484612067565b612062576040517f08c379a000000000000000000000000000000000000000000000000000000000815260040161205990613d5f565b60405180910390fd5b505050565b60006120888473ffffffffffffffffffffffffffffffffffffffff166125b0565b156121e1578373ffffffffffffffffffffffffffffffffffffffff1663150b7a026120b161172a565b8786866040518563ffffffff1660e01b81526004016120d39493929190613e03565b6020604051808303816000875af192505050801561210f57506040513d601f19601f8201168201806040525081019061210c9190613e64565b60015b612191573d806000811461213f576040519150601f19603f3d011682016040523d82523d6000602084013e612144565b606091505b506000815103612189576040517f08c379a000000000000000000000000000000000000000000000000000000000815260040161218090613d5f565b60405180910390fd5b805181602001fd5b63150b7a0260e01b7bffffffffffffffffffffffffffffffffffffffffffffffffffffffff1916817bffffffffffffffffffffffffffffffffffffffffffffffffffffffff1916149150506121e6565b600190505b949350505050565b600080600090507a184f03e93ff9f4daa797ed6e38ed64bf6a1f010000000000000000831061224c577a184f03e93ff9f4daa797ed6e38ed64bf6a1f010000000000000000838161224257612241613d7f565b5b0492506040810190505b6d04ee2d6d415b85acef81000000008310612289576d04ee2d6d415b85acef8100000000838161227f5761227e613d7f565b5b0492506020810190505b662386f26fc1000083106122b857662386f26fc1000083816122ae576122ad613d7f565b5b0492506010810190505b6305f5e10083106122e1576305f5e10083816122d7576122d6613d7f565b5b0492506008810190505b61271083106123065761271083816122fc576122fb613d7f565b5b0492506004810190505b60648310612329576064838161231f5761231e613d7f565b5b0492506002810190505b600a8310612338576001810190505b80915050919050565b60008082905060005b845181101561238c576123778286838151811061236a57612369613e91565b5b60200260200101516125d3565b91508080612384906136ca565b91505061234a565b508091505092915050565b600073ffffffffffffffffffffffffffffffffffffffff168273ffffffffffffffffffffffffffffffffffffffff1603612406576040517f08c379a00000000000000000000000000000000000000000000000000000000081526004016123fd90613f0c565b60405180910390fd5b61240f81611edc565b1561244f576040517f08c379a000000000000000000000000000000000000000000000000000000000815260040161244690613f78565b60405180910390fd5b61245b60008383612002565b61246481611edc565b156124a4576040517f08c379a000000000000000000000000000000000000000000000000000000000815260040161249b90613f78565b60405180910390fd5b6001600360008473ffffffffffffffffffffffffffffffffffffffff1673ffffffffffffffffffffffffffffffffffffffff16815260200190815260200160002060008282540192505081905550816002600083815260200190815260200160002060006101000a81548173ffffffffffffffffffffffffffffffffffffffff021916908373ffffffffffffffffffffffffffffffffffffffff160217905550808273ffffffffffffffffffffffffffffffffffffffff16600073ffffffffffffffffffffffffffffffffffffffff167fddf252ad1be2c89b69c2b068fc378daa952ba7f163c4a11628f55a4df523b3ef60405160405180910390a46125ac60008383612007565b5050565b6000808273ffffffffffffffffffffffffffffffffffffffff163b119050919050565b60008183106125eb576125e682846125fe565b6125f6565b6125f583836125fe565b5b905092915050565b600082600052816020526040600020905092915050565b60008115159050919050565b61262a81612615565b82525050565b60006020820190506126456000830184612621565b92915050565b6000604051905090565b600080fd5b600080fd5b60007fffffffff0000000000000000000000000000000000000000000000000000000082169050919050565b6126948161265f565b811461269f57600080fd5b50565b6000813590506126b18161268b565b92915050565b6000602082840312156126cd576126cc612655565b5b60006126db848285016126a2565b91505092915050565b600081519050919050565b600082825260208201905092915050565b60005b8381101561271e578082015181840152602081019050612703565b60008484015250505050565b6000601f19601f8301169050919050565b6000612746826126e4565b61275081856126ef565b9350612760818560208601612700565b6127698161272a565b840191505092915050565b6000602082019050818103600083015261278e818461273b565b905092915050565b6000819050919050565b6127a981612796565b81146127b457600080fd5b50565b6000813590506127c6816127a0565b92915050565b6000602082840312156127e2576127e1612655565b5b60006127f0848285016127b7565b91505092915050565b600073ffffffffffffffffffffffffffffffffffffffff82169050919050565b6000612824826127f9565b9050919050565b61283481612819565b82525050565b600060208201905061284f600083018461282b565b92915050565b61285e81612819565b811461286957600080fd5b50565b60008135905061287b81612855565b92915050565b6000806040838503121561289857612897612655565b5b60006128a68582860161286c565b92505060206128b7858286016127b7565b9150509250929050565b6128ca81612796565b82525050565b60006020820190506128e560008301846128c1565b92915050565b6128f481612615565b81146128ff57600080fd5b50565b600081359050612911816128eb565b92915050565b60006020828403121561292d5761292c612655565b5b600061293b84828501612902565b91505092915050565b60008060006060848603121561295d5761295c612655565b5b600061296b8682870161286c565b935050602061297c8682870161286c565b925050604061298d868287016127b7565b9150509250925092565b6000602082840312156129ad576129ac612655565b5b60006129bb8482850161286c565b91505092915050565b60006129cf826127f9565b9050919050565b6129df816129c4565b82525050565b60006020820190506129fa60008301846129d6565b92915050565b600080fd5b600080fd5b600080fd5b60008083601f840112612a2557612a24612a00565b5b8235905067ffffffffffffffff811115612a4257612a41612a05565b5b602083019150836001820283011115612a5e57612a5d612a0a565b5b9250929050565b60008060208385031215612a7c57612a7b612655565b5b600083013567ffffffffffffffff811115612a9a57612a9961265a565b5b612aa685828601612a0f565b92509250509250929050565b60008060408385031215612ac957612ac8612655565b5b6000612ad78582860161286c565b9250506020612ae885828601612902565b9150509250929050565b6000819050919050565b612b0581612af2565b82525050565b6000602082019050612b206000830184612afc565b92915050565b600080fd5b7f4e487b7100000000000000000000000000000000000000000000000000000000600052604160045260246000fd5b612b638261272a565b810181811067ffffffffffffffff82111715612b8257612b81612b2b565b5b80604052505050565b6000612b9561264b565b9050612ba18282612b5a565b919050565b600067ffffffffffffffff821115612bc157612bc0612b2b565b5b612bca8261272a565b9050602081019050919050565b82818337600083830152505050565b6000612bf9612bf484612ba6565b612b8b565b905082815260208101848484011115612c1557612c14612b26565b5b612c20848285612bd7565b509392505050565b600082601f830112612c3d57612c3c612a00565b5b8135612c4d848260208601612be6565b91505092915050565b60008060008060808587031215612c7057612c6f612655565b5b6000612c7e8782880161286c565b9450506020612c8f8782880161286c565b9350506040612ca0878288016127b7565b925050606085013567ffffffffffffffff811115612cc157612cc061265a565b5b612ccd87828801612c28565b91505092959194509250565b612ce281612af2565b8114612ced57600080fd5b50565b600081359050612cff81612cd9565b92915050565b600060208284031215612d1b57612d1a612655565b5b6000612d2984828501612cf0565b91505092915050565b60008060408385031215612d4957612d48612655565b5b6000612d578582860161286c565b9250506020612d688582860161286c565b9150509250929050565b60008083601f840112612d8857612d87612a00565b5b8235905067ffffffffffffffff811115612da557612da4612a05565b5b602083019150836020820283011115612dc157612dc0612a0a565b5b9250929050565b600080600060408486031215612de157612de0612655565b5b6000612def868287016127b7565b935050602084013567ffffffffffffffff811115612e1057612e0f61265a565b5b612e1c86828701612d72565b92509250509250925092565b7f4e487b7100000000000000000000000000000000000000000000000000000000600052602260045260246000fd5b60006002820490506001821680612e6f57607f821691505b602082108103612e8257612e81612e28565b5b50919050565b7f4552433732313a20617070726f76616c20746f2063757272656e74206f776e6560008201527f7200000000000000000000000000000000000000000000000000000000000000602082015250565b6000612ee46021836126ef565b9150612eef82612e88565b604082019050919050565b60006020820190508181036000830152612f1381612ed7565b9050919050565b7f4552433732313a20617070726f76652063616c6c6572206973206e6f7420746f60008201527f6b656e206f776e6572206f7220617070726f76656420666f7220616c6c000000602082015250565b6000612f76603d836126ef565b9150612f8182612f1a565b604082019050919050565b60006020820190508181036000830152612fa581612f69565b9050919050565b7f4552433732313a2063616c6c6572206973206e6f7420746f6b656e206f776e6560008201527f72206f7220617070726f76656400000000000000000000000000000000000000602082015250565b6000613008602d836126ef565b915061301382612fac565b604082019050919050565b6000602082019050818103600083015261303781612ffb565b9050919050565b600081905092915050565b50565b600061305960008361303e565b915061306482613049565b600082019050919050565b600061307a8261304c565b9150819050919050565b7f7769746864726177206661696c65640000000000000000000000000000000000600082015250565b60006130ba600f836126ef565b91506130c582613084565b602082019050919050565b600060208201905081810360008301526130e9816130ad565b9050919050565b7f4552433732313a20696e76616c696420746f6b656e2049440000000000000000600082015250565b60006131266018836126ef565b9150613131826130f0565b602082019050919050565b6000602082019050818103600083015261315581613119565b9050919050565b7f4552433732313a2061646472657373207a65726f206973206e6f74206120766160008201527f6c6964206f776e65720000000000000000000000000000000000000000000000602082015250565b60006131b86029836126ef565b91506131c38261315c565b604082019050919050565b600060208201905081810360008301526131e7816131ab565b9050919050565b600082905092915050565b60008190508160005260206000209050919050565b60006020601f8301049050919050565b600082821b905092915050565b60006008830261325b7fffffffffffffffffffffffffffffffffffffffffffffffffffffffffffffffff8261321e565b613265868361321e565b95508019841693508086168417925050509392505050565b6000819050919050565b60006132a261329d61329884612796565b61327d565b612796565b9050919050565b6000819050919050565b6132bc83613287565b6132d06132c8826132a9565b84845461322b565b825550505050565b600090565b6132e56132d8565b6132f08184846132b3565b505050565b5b81811015613314576133096000826132dd565b6001810190506132f6565b5050565b601f8211156133595761332a816131f9565b6133338461320e565b81016020851015613342578190505b61335661334e8561320e565b8301826132f5565b50505b505050565b600082821c905092915050565b600061337c6000198460080261335e565b1980831691505092915050565b6000613395838361336b565b9150826002028217905092915050565b6133af83836131ee565b67ffffffffffffffff8111156133c8576133c7612b2b565b5b6133d28254612e57565b6133dd828285613318565b6000601f83116001811461340c57600084156133fa578287013590505b6134048582613389565b86555061346c565b601f19841661341a866131f9565b60005b828110156134425784890135825560018201915060208501945060208101905061341d565b8683101561345f578489013561345b601f89168261336b565b8355505b6001600288020188555050505b50505050505050565b7f6d696e74696e67206e6f7420656e61626c656400000000000000000000000000600082015250565b60006134ab6013836126ef565b91506134b682613475565b602082019050919050565b600060208201905081810360008301526134da8161349e565b9050919050565b7f4e487b7100000000000000000000000000000000000000000000000000000000600052601160045260246000fd5b600061351b82612796565b915061352683612796565b925082820261353481612796565b9150828204841483151761354b5761354a6134e1565b5b5092915050565b7f77726f6e67206d696e742076616c756500000000000000000000000000000000600082015250565b60006135886010836126ef565b915061359382613552565b602082019050919050565b600060208201905081810360008301526135b78161357b565b9050919050565b60006135c982612796565b91506135d483612796565b92508282019050808211156135ec576135eb6134e1565b5b92915050565b7f536f6c64206f7574000000000000000000000000000000000000000000000000600082015250565b60006136286008836126ef565b9150613633826135f2565b602082019050919050565b600060208201905081810360008301526136578161361b565b9050919050565b7f657863656564206d61782077616c6c6574000000000000000000000000000000600082015250565b60006136946011836126ef565b915061369f8261365e565b602082019050919050565b600060208201905081810360008301526136c381613687565b9050919050565b60006136d582612796565b91507fffffffffffffffffffffffffffffffffffffffffffffffffffffffffffffffff8203613707576137066134e1565b5b600182019050919050565b7f546f6b656e20646f6573206e6f74206578697374210000000000000000000000600082015250565b60006137486015836126ef565b915061375382613712565b602082019050919050565b600060208201905081810360008301526137778161373b565b9050919050565b600081905092915050565b6000815461379681612e57565b6137a0818661377e565b945060018216600081146137bb57600181146137d057613803565b60ff1983168652811515820286019350613803565b6137d9856131f9565b60005b838110156137fb578154818901526001820191506020810190506137dc565b838801955050505b50505092915050565b6000613817826126e4565b613821818561377e565b9350613831818560208601612700565b80840191505092915050565b7f2e6a736f6e000000000000000000000000000000000000000000000000000000600082015250565b600061387360058361377e565b915061387e8261383d565b600582019050919050565b60006138958285613789565b91506138a1828461380c565b91506138ac82613866565b91508190509392505050565b7f4f776e61626c653a206e6577206f776e657220697320746865207a65726f206160008201527f6464726573730000000000000000000000000000000000000000000000000000602082015250565b60006139146026836126ef565b915061391f826138b8565b604082019050919050565b6000602082019050818103600083015261394381613907565b9050919050565b7f77686974656c697374206d696e74696e67206e6f7420656e61626c6564000000600082015250565b6000613980601d836126ef565b915061398b8261394a565b602082019050919050565b600060208201905081810360008301526139af81613973565b9050919050565b7f4164647265737320616c726561647920636c61696d6564210000000000000000600082015250565b60006139ec6018836126ef565b91506139f7826139b6565b602082019050919050565b60006020820190508181036000830152613a1b816139df565b9050919050565b60008160601b9050919050565b6000613a3a82613a22565b9050919050565b6000613a4c82613a2f565b9050919050565b613a64613a5f82612819565b613a41565b82525050565b6000613a768284613a53565b60148201915081905092915050565b7f496e76616c69642070726f6f6621000000000000000000000000000000000000600082015250565b6000613abb600e836126ef565b9150613ac682613a85565b602082019050919050565b60006020820190508181036000830152613aea81613aae565b9050919050565b7f4f776e61626c653a2063616c6c6572206973206e6f7420746865206f776e6572600082015250565b6000613b276020836126ef565b9150613b3282613af1565b602082019050919050565b60006020820190508181036000830152613b5681613b1a565b9050919050565b7f4552433732313a207472616e736665722066726f6d20696e636f72726563742060008201527f6f776e6572000000000000000000000000000000000000000000000000000000602082015250565b6000613bb96025836126ef565b9150613bc482613b5d565b604082019050919050565b60006020820190508181036000830152613be881613bac565b9050919050565b7f4552433732313a207472616e7366657220746f20746865207a65726f2061646460008201527f7265737300000000000000000000000000000000000000000000000000000000602082015250565b6000613c4b6024836126ef565b9150613c5682613bef565b604082019050919050565b60006020820190508181036000830152613c7a81613c3e565b9050919050565b7f4552433732313a20617070726f766520746f2063616c6c657200000000000000600082015250565b6000613cb76019836126ef565b9150613cc282613c81565b602082019050919050565b60006020820190508181036000830152613ce681613caa565b9050919050565b7f4552433732313a207472616e7366657220746f206e6f6e20455243373231526560008201527f63656976657220696d706c656d656e7465720000000000000000000000000000602082015250565b6000613d496032836126ef565b9150613d5482613ced565b604082019050919050565b60006020820190508181036000830152613d7881613d3c565b9050919050565b7f4e487b7100000000000000000000000000000000000000000000000000000000600052601260045260246000fd5b600081519050919050565b600082825260208201905092915050565b6000613dd582613dae565b613ddf8185613db9565b9350613def818560208601612700565b613df88161272a565b840191505092915050565b6000608082019050613e18600083018761282b565b613e25602083018661282b565b613e3260408301856128c1565b8181036060830152613e448184613dca565b905095945050505050565b600081519050613e5e8161268b565b92915050565b600060208284031215613e7a57613e79612655565b5b6000613e8884828501613e4f565b91505092915050565b7f4e487b7100000000000000000000000000000000000000000000000000000000600052603260045260246000fd5b7f4552433732313a206d696e7420746f20746865207a65726f2061646472657373600082015250565b6000613ef66020836126ef565b9150613f0182613ec0565b602082019050919050565b60006020820190508181036000830152613f2581613ee9565b9050919050565b7f4552433732313a20746f6b656e20616c7265616479206d696e74656400000000600082015250565b6000613f62601c836126ef565b9150613f6d82613f2c565b602082019050919050565b60006020820190508181036000830152613f9181613f55565b905091905056fea2646970667358221220a1b0d1ca594f70ca3bef7937f1909ae5efdc3b9fcdd835c8a709516037d6d55c64736f6c63430008110033",
	"linkReferences": {},
	"deployedLinkReferences": {}
}